{
  "_format": "hh-sol-artifact-1",
  "contractName": "SimpleNFT",
  "sourceName": "contracts/SimpleNFT.sol",
  "abi": [
    {
      "inputs": [],
      "stateMutability": "nonpayable",
      "type": "constructor"
    },
    {
      "anonymous": false,
      "inputs": [
        {
          "indexed": true,
          "internalType": "address",
          "name": "owner",
          "type": "address"
        },
        {
          "indexed": true,
          "internalType": "address",
          "name": "approved",
          "type": "address"
        },
        {
          "indexed": true,
          "internalType": "uint256",
          "name": "tokenId",
          "type": "uint256"
        }
      ],
      "name": "Approval",
      "type": "event"
    },
    {
      "anonymous": false,
      "inputs": [
        {
          "indexed": true,
          "internalType": "address",
          "name": "owner",
          "type": "address"
        },
        {
          "indexed": true,
          "internalType": "address",
          "name": "operator",
          "type": "address"
        },
        {
          "indexed": false,
          "internalType": "bool",
          "name": "approved",
          "type": "bool"
        }
      ],
      "name": "ApprovalForAll",
      "type": "event"
    },
    {
      "anonymous": false,
      "inputs": [
        {
          "indexed": false,
          "internalType": "uint256",
          "name": "_fromTokenId",
          "type": "uint256"
        },
        {
          "indexed": false,
          "internalType": "uint256",
          "name": "_toTokenId",
          "type": "uint256"
        }
      ],
      "name": "BatchMetadataUpdate",
      "type": "event"
    },
    {
      "anonymous": false,
      "inputs": [
        {
          "indexed": false,
          "internalType": "uint256",
          "name": "_tokenId",
          "type": "uint256"
        }
      ],
      "name": "MetadataUpdate",
      "type": "event"
    },
    {
      "anonymous": false,
      "inputs": [
        {
          "indexed": true,
          "internalType": "address",
          "name": "from",
          "type": "address"
        },
        {
          "indexed": true,
          "internalType": "address",
          "name": "to",
          "type": "address"
        },
        {
          "indexed": true,
          "internalType": "uint256",
          "name": "tokenId",
          "type": "uint256"
        }
      ],
      "name": "Transfer",
      "type": "event"
    },
    {
      "inputs": [
        {
          "internalType": "address",
          "name": "to",
          "type": "address"
        },
        {
          "internalType": "uint256",
          "name": "tokenId",
          "type": "uint256"
        }
      ],
      "name": "approve",
      "outputs": [],
      "stateMutability": "nonpayable",
      "type": "function"
    },
    {
      "inputs": [
        {
          "internalType": "address",
          "name": "owner",
          "type": "address"
        }
      ],
      "name": "balanceOf",
      "outputs": [
        {
          "internalType": "uint256",
          "name": "",
          "type": "uint256"
        }
      ],
      "stateMutability": "view",
      "type": "function"
    },
    {
      "inputs": [
        {
          "internalType": "uint256",
          "name": "tokenId",
          "type": "uint256"
        }
      ],
      "name": "getApproved",
      "outputs": [
        {
          "internalType": "address",
          "name": "",
          "type": "address"
        }
      ],
      "stateMutability": "view",
      "type": "function"
    },
    {
      "inputs": [
        {
          "internalType": "address",
          "name": "",
          "type": "address"
        }
      ],
      "name": "hasMinted",
      "outputs": [
        {
          "internalType": "bool",
          "name": "",
          "type": "bool"
        }
      ],
      "stateMutability": "view",
      "type": "function"
    },
    {
      "inputs": [
        {
          "internalType": "address",
          "name": "owner",
          "type": "address"
        },
        {
          "internalType": "address",
          "name": "operator",
          "type": "address"
        }
      ],
      "name": "isApprovedForAll",
      "outputs": [
        {
          "internalType": "bool",
          "name": "",
          "type": "bool"
        }
      ],
      "stateMutability": "view",
      "type": "function"
    },
    {
      "inputs": [
        {
          "internalType": "string",
          "name": "tokenURI",
          "type": "string"
        }
      ],
      "name": "mint",
      "outputs": [],
      "stateMutability": "nonpayable",
      "type": "function"
    },
    {
      "inputs": [],
      "name": "name",
      "outputs": [
        {
          "internalType": "string",
          "name": "",
          "type": "string"
        }
      ],
      "stateMutability": "view",
      "type": "function"
    },
    {
      "inputs": [],
      "name": "nextTokenId",
      "outputs": [
        {
          "internalType": "uint256",
          "name": "",
          "type": "uint256"
        }
      ],
      "stateMutability": "view",
      "type": "function"
    },
    {
      "inputs": [
        {
          "internalType": "uint256",
          "name": "tokenId",
          "type": "uint256"
        }
      ],
      "name": "ownerOf",
      "outputs": [
        {
          "internalType": "address",
          "name": "",
          "type": "address"
        }
      ],
      "stateMutability": "view",
      "type": "function"
    },
    {
      "inputs": [
        {
          "internalType": "address",
          "name": "from",
          "type": "address"
        },
        {
          "internalType": "address",
          "name": "to",
          "type": "address"
        },
        {
          "internalType": "uint256",
          "name": "tokenId",
          "type": "uint256"
        }
      ],
      "name": "safeTransferFrom",
      "outputs": [],
      "stateMutability": "nonpayable",
      "type": "function"
    },
    {
      "inputs": [
        {
          "internalType": "address",
          "name": "from",
          "type": "address"
        },
        {
          "internalType": "address",
          "name": "to",
          "type": "address"
        },
        {
          "internalType": "uint256",
          "name": "tokenId",
          "type": "uint256"
        },
        {
          "internalType": "bytes",
          "name": "data",
          "type": "bytes"
        }
      ],
      "name": "safeTransferFrom",
      "outputs": [],
      "stateMutability": "nonpayable",
      "type": "function"
    },
    {
      "inputs": [
        {
          "internalType": "address",
          "name": "operator",
          "type": "address"
        },
        {
          "internalType": "bool",
          "name": "approved",
          "type": "bool"
        }
      ],
      "name": "setApprovalForAll",
      "outputs": [],
      "stateMutability": "nonpayable",
      "type": "function"
    },
    {
      "inputs": [
        {
          "internalType": "bytes4",
          "name": "interfaceId",
          "type": "bytes4"
        }
      ],
      "name": "supportsInterface",
      "outputs": [
        {
          "internalType": "bool",
          "name": "",
          "type": "bool"
        }
      ],
      "stateMutability": "view",
      "type": "function"
    },
    {
      "inputs": [],
      "name": "symbol",
      "outputs": [
        {
          "internalType": "string",
          "name": "",
          "type": "string"
        }
      ],
      "stateMutability": "view",
      "type": "function"
    },
    {
      "inputs": [
        {
          "internalType": "uint256",
          "name": "tokenId",
          "type": "uint256"
        }
      ],
      "name": "tokenURI",
      "outputs": [
        {
          "internalType": "string",
          "name": "",
          "type": "string"
        }
      ],
      "stateMutability": "view",
      "type": "function"
    },
    {
      "inputs": [
        {
          "internalType": "address",
          "name": "owner",
          "type": "address"
        }
      ],
      "name": "tokensOfOwner",
      "outputs": [
        {
          "internalType": "uint256[]",
          "name": "",
          "type": "uint256[]"
        }
      ],
      "stateMutability": "view",
      "type": "function"
    },
    {
      "inputs": [
        {
          "internalType": "address",
          "name": "from",
          "type": "address"
        },
        {
          "internalType": "address",
          "name": "to",
          "type": "address"
        },
        {
          "internalType": "uint256",
          "name": "tokenId",
          "type": "uint256"
        }
      ],
      "name": "transferFrom",
      "outputs": [],
      "stateMutability": "nonpayable",
      "type": "function"
    }
  ],
  "bytecode": "0x60806040523480156200001157600080fd5b506040518060400160405280600981526020017f53696d706c654e465400000000000000000000000000000000000000000000008152506040518060400160405280600481526020017f534e46540000000000000000000000000000000000000000000000000000000081525081600090816200008f919062000324565b508060019081620000a1919062000324565b5050506200040b565b600081519050919050565b7f4e487b7100000000000000000000000000000000000000000000000000000000600052604160045260246000fd5b7f4e487b7100000000000000000000000000000000000000000000000000000000600052602260045260246000fd5b600060028204905060018216806200012c57607f821691505b602082108103620001425762000141620000e4565b5b50919050565b60008190508160005260206000209050919050565b60006020601f8301049050919050565b600082821b905092915050565b600060088302620001ac7fffffffffffffffffffffffffffffffffffffffffffffffffffffffffffffffff826200016d565b620001b886836200016d565b95508019841693508086168417925050509392505050565b6000819050919050565b6000819050919050565b600062000205620001ff620001f984620001d0565b620001da565b620001d0565b9050919050565b6000819050919050565b6200022183620001e4565b6200023962000230826200020c565b8484546200017a565b825550505050565b600090565b6200025062000241565b6200025d81848462000216565b505050565b5b8181101562000285576200027960008262000246565b60018101905062000263565b5050565b601f821115620002d4576200029e8162000148565b620002a9846200015d565b81016020851015620002b9578190505b620002d1620002c8856200015d565b83018262000262565b50505b505050565b600082821c905092915050565b6000620002f960001984600802620002d9565b1980831691505092915050565b6000620003148383620002e6565b9150826002028217905092915050565b6200032f82620000aa565b67ffffffffffffffff8111156200034b576200034a620000b5565b5b62000357825462000113565b6200036482828562000289565b600060209050601f8311600181146200039c576000841562000387578287015190505b62000393858262000306565b86555062000403565b601f198416620003ac8662000148565b60005b82811015620003d657848901518255600182019150602085019450602081019050620003af565b86831015620003f65784890151620003f2601f891682620002e6565b8355505b6001600288020188555050505b505050505050565b61304a806200041b6000396000f3fe608060405234801561001057600080fd5b506004361061010b5760003560e01c806370a08231116100a2578063a22cb46511610071578063a22cb465146102de578063b88d4fde146102fa578063c87b56dd14610316578063d85d3d2714610346578063e985e9c5146103625761010b565b806370a082311461024257806375794a3c146102725780638462151c1461029057806395d89b41146102c05761010b565b806323b872dd116100de57806323b872dd146101aa57806338e21cce146101c657806342842e0e146101f65780636352211e146102125761010b565b806301ffc9a71461011057806306fdde0314610140578063081812fc1461015e578063095ea7b31461018e575b600080fd5b61012a60048036038101906101259190611d18565b610392565b6040516101379190611d60565b60405180910390f35b6101486103f3565b6040516101559190611e0b565b60405180910390f35b61017860048036038101906101739190611e63565b610485565b6040516101859190611ed1565b60405180910390f35b6101a860048036038101906101a39190611f18565b6104cb565b005b6101c460048036038101906101bf9190611f58565b6105e2565b005b6101e060048036038101906101db9190611fab565b610642565b6040516101ed9190611d60565b60405180910390f35b610210600480360381019061020b9190611f58565b610662565b005b61022c60048036038101906102279190611e63565b610682565b6040516102399190611ed1565b60405180910390f35b61025c60048036038101906102579190611fab565b610708565b6040516102699190611fe7565b60405180910390f35b61027a6107bf565b6040516102879190611fe7565b60405180910390f35b6102aa60048036038101906102a59190611fab565b6107c5565b6040516102b791906120c0565b60405180910390f35b6102c8610928565b6040516102d59190611e0b565b60405180910390f35b6102f860048036038101906102f3919061210e565b6109ba565b005b610314600480360381019061030f9190612283565b6109d0565b005b610330600480360381019061032b9190611e63565b610a32565b60405161033d9190611e0b565b60405180910390f35b610360600480360381019061035b91906123a7565b610b44565b005b61037c600480360381019061037791906123f0565b610c5c565b6040516103899190611d60565b60405180910390f35b6000634906490660e01b7bffffffffffffffffffffffffffffffffffffffffffffffffffffffff1916827bffffffffffffffffffffffffffffffffffffffffffffffffffffffff191614806103ec57506103eb82610cf0565b5b9050919050565b6060600080546104029061245f565b80601f016020809104026020016040519081016040528092919081815260200182805461042e9061245f565b801561047b5780601f106104505761010080835404028352916020019161047b565b820191906000526020600020905b81548152906001019060200180831161045e57829003601f168201915b5050505050905090565b600061049082610dd2565b6004600083815260200190815260200160002060009054906101000a900473ffffffffffffffffffffffffffffffffffffffff169050919050565b60006104d682610682565b90508073ffffffffffffffffffffffffffffffffffffffff168373ffffffffffffffffffffffffffffffffffffffff1603610546576040517f08c379a000000000000000000000000000000000000000000000000000000000815260040161053d90612502565b60405180910390fd5b8073ffffffffffffffffffffffffffffffffffffffff16610565610e1d565b73ffffffffffffffffffffffffffffffffffffffff16148061059457506105938161058e610e1d565b610c5c565b5b6105d3576040517f08c379a00000000000000000000000000000000000000000000000000000000081526004016105ca90612594565b60405180910390fd5b6105dd8383610e25565b505050565b6105f36105ed610e1d565b82610ede565b610632576040517f08c379a000000000000000000000000000000000000000000000000000000000815260040161062990612626565b60405180910390fd5b61063d838383610f73565b505050565b60086020528060005260406000206000915054906101000a900460ff1681565b61067d838383604051806020016040528060008152506109d0565b505050565b60008061068e8361126c565b9050600073ffffffffffffffffffffffffffffffffffffffff168173ffffffffffffffffffffffffffffffffffffffff16036106ff576040517f08c379a00000000000000000000000000000000000000000000000000000000081526004016106f690612692565b60405180910390fd5b80915050919050565b60008073ffffffffffffffffffffffffffffffffffffffff168273ffffffffffffffffffffffffffffffffffffffff1603610778576040517f08c379a000000000000000000000000000000000000000000000000000000000815260040161076f90612724565b60405180910390fd5b600360008373ffffffffffffffffffffffffffffffffffffffff1673ffffffffffffffffffffffffffffffffffffffff168152602001908152602001600020549050919050565b60075481565b606060006107d283610708565b905060008167ffffffffffffffff8111156107f0576107ef612158565b5b60405190808252806020026020018201604052801561081e5781602001602082028036833780820191505090505b5090506000805b60075481101561091c573073ffffffffffffffffffffffffffffffffffffffff16636352211e826040518263ffffffff1660e01b81526004016108689190611fe7565b602060405180830381865afa9250505080156108a257506040513d601f19601f8201168201806040525081019061089f9190612759565b60015b15610909578673ffffffffffffffffffffffffffffffffffffffff168173ffffffffffffffffffffffffffffffffffffffff160361090757818484806108e7906127b5565b9550815181106108fa576108f96127fd565b5b6020026020010181815250505b505b8080610914906127b5565b915050610825565b50819350505050919050565b6060600180546109379061245f565b80601f01602080910402602001604051908101604052809291908181526020018280546109639061245f565b80156109b05780601f10610985576101008083540402835291602001916109b0565b820191906000526020600020905b81548152906001019060200180831161099357829003601f168201915b5050505050905090565b6109cc6109c5610e1d565b83836112a9565b5050565b6109e16109db610e1d565b83610ede565b610a20576040517f08c379a0000000000000000000000000000000000000000000000000000000008152600401610a1790612626565b60405180910390fd5b610a2c84848484611415565b50505050565b6060610a3d82610dd2565b6000600660008481526020019081526020016000208054610a5d9061245f565b80601f0160208091040260200160405190810160405280929190818152602001828054610a899061245f565b8015610ad65780601f10610aab57610100808354040283529160200191610ad6565b820191906000526020600020905b815481529060010190602001808311610ab957829003601f168201915b505050505090506000610ae7611471565b90506000815103610afc578192505050610b3f565b600082511115610b31578082604051602001610b19929190612868565b60405160208183030381529060405292505050610b3f565b610b3a84611488565b925050505b919050565b600860003373ffffffffffffffffffffffffffffffffffffffff1673ffffffffffffffffffffffffffffffffffffffff16815260200190815260200160002060009054906101000a900460ff1615610bd1576040517f08c379a0000000000000000000000000000000000000000000000000000000008152600401610bc8906128d8565b60405180910390fd5b600060076000815480929190610be6906127b5565b919050559050610bf633826114f0565b610c00818361150e565b6001600860003373ffffffffffffffffffffffffffffffffffffffff1673ffffffffffffffffffffffffffffffffffffffff16815260200190815260200160002060006101000a81548160ff0219169083151502179055505050565b6000600560008473ffffffffffffffffffffffffffffffffffffffff1673ffffffffffffffffffffffffffffffffffffffff16815260200190815260200160002060008373ffffffffffffffffffffffffffffffffffffffff1673ffffffffffffffffffffffffffffffffffffffff16815260200190815260200160002060009054906101000a900460ff16905092915050565b60007f80ac58cd000000000000000000000000000000000000000000000000000000007bffffffffffffffffffffffffffffffffffffffffffffffffffffffff1916827bffffffffffffffffffffffffffffffffffffffffffffffffffffffff19161480610dbb57507f5b5e139f000000000000000000000000000000000000000000000000000000007bffffffffffffffffffffffffffffffffffffffffffffffffffffffff1916827bffffffffffffffffffffffffffffffffffffffffffffffffffffffff1916145b80610dcb5750610dca826115b2565b5b9050919050565b610ddb8161161c565b610e1a576040517f08c379a0000000000000000000000000000000000000000000000000000000008152600401610e1190612692565b60405180910390fd5b50565b600033905090565b816004600083815260200190815260200160002060006101000a81548173ffffffffffffffffffffffffffffffffffffffff021916908373ffffffffffffffffffffffffffffffffffffffff160217905550808273ffffffffffffffffffffffffffffffffffffffff16610e9883610682565b73ffffffffffffffffffffffffffffffffffffffff167f8c5be1e5ebec7d5bd14f71427d1e84f3dd0314c0f7b2291e5b200ac8c7c3b92560405160405180910390a45050565b600080610eea83610682565b90508073ffffffffffffffffffffffffffffffffffffffff168473ffffffffffffffffffffffffffffffffffffffff161480610f2c5750610f2b8185610c5c565b5b80610f6a57508373ffffffffffffffffffffffffffffffffffffffff16610f5284610485565b73ffffffffffffffffffffffffffffffffffffffff16145b91505092915050565b8273ffffffffffffffffffffffffffffffffffffffff16610f9382610682565b73ffffffffffffffffffffffffffffffffffffffff1614610fe9576040517f08c379a0000000000000000000000000000000000000000000000000000000008152600401610fe09061296a565b60405180910390fd5b600073ffffffffffffffffffffffffffffffffffffffff168273ffffffffffffffffffffffffffffffffffffffff1603611058576040517f08c379a000000000000000000000000000000000000000000000000000000000815260040161104f906129fc565b60405180910390fd5b611065838383600161165d565b8273ffffffffffffffffffffffffffffffffffffffff1661108582610682565b73ffffffffffffffffffffffffffffffffffffffff16146110db576040517f08c379a00000000000000000000000000000000000000000000000000000000081526004016110d29061296a565b60405180910390fd5b6004600082815260200190815260200160002060006101000a81549073ffffffffffffffffffffffffffffffffffffffff02191690556001600360008573ffffffffffffffffffffffffffffffffffffffff1673ffffffffffffffffffffffffffffffffffffffff168152602001908152602001600020600082825403925050819055506001600360008473ffffffffffffffffffffffffffffffffffffffff1673ffffffffffffffffffffffffffffffffffffffff16815260200190815260200160002060008282540192505081905550816002600083815260200190815260200160002060006101000a81548173ffffffffffffffffffffffffffffffffffffffff021916908373ffffffffffffffffffffffffffffffffffffffff160217905550808273ffffffffffffffffffffffffffffffffffffffff168473ffffffffffffffffffffffffffffffffffffffff167fddf252ad1be2c89b69c2b068fc378daa952ba7f163c4a11628f55a4df523b3ef60405160405180910390a46112678383836001611663565b505050565b60006002600083815260200190815260200160002060009054906101000a900473ffffffffffffffffffffffffffffffffffffffff169050919050565b8173ffffffffffffffffffffffffffffffffffffffff168373ffffffffffffffffffffffffffffffffffffffff1603611317576040517f08c379a000000000000000000000000000000000000000000000000000000000815260040161130e90612a68565b60405180910390fd5b80600560008573ffffffffffffffffffffffffffffffffffffffff1673ffffffffffffffffffffffffffffffffffffffff16815260200190815260200160002060008473ffffffffffffffffffffffffffffffffffffffff1673ffffffffffffffffffffffffffffffffffffffff16815260200190815260200160002060006101000a81548160ff0219169083151502179055508173ffffffffffffffffffffffffffffffffffffffff168373ffffffffffffffffffffffffffffffffffffffff167f17307eab39ab6107e8899845ad3d59bd9653f200f220920489ca2b5937696c31836040516114089190611d60565b60405180910390a3505050565b611420848484610f73565b61142c84848484611669565b61146b576040517f08c379a000000000000000000000000000000000000000000000000000000000815260040161146290612afa565b60405180910390fd5b50505050565b606060405180602001604052806000815250905090565b606061149382610dd2565b600061149d611471565b905060008151116114bd57604051806020016040528060008152506114e8565b806114c7846117f0565b6040516020016114d8929190612868565b6040516020818303038152906040525b915050919050565b61150a8282604051806020016040528060008152506118be565b5050565b6115178261161c565b611556576040517f08c379a000000000000000000000000000000000000000000000000000000000815260040161154d90612b8c565b60405180910390fd5b806006600084815260200190815260200160002090816115769190612d58565b507ff8e1a15aba9398e019f0b49df1a4fde98ee17ae345cb5f6b5e2c27f5033e8ce7826040516115a69190611fe7565b60405180910390a15050565b60007f01ffc9a7000000000000000000000000000000000000000000000000000000007bffffffffffffffffffffffffffffffffffffffffffffffffffffffff1916827bffffffffffffffffffffffffffffffffffffffffffffffffffffffff1916149050919050565b60008073ffffffffffffffffffffffffffffffffffffffff1661163e8361126c565b73ffffffffffffffffffffffffffffffffffffffff1614159050919050565b50505050565b50505050565b600061168a8473ffffffffffffffffffffffffffffffffffffffff16611919565b156117e3578373ffffffffffffffffffffffffffffffffffffffff1663150b7a026116b3610e1d565b8786866040518563ffffffff1660e01b81526004016116d59493929190612e7f565b6020604051808303816000875af192505050801561171157506040513d601f19601f8201168201806040525081019061170e9190612ee0565b60015b611793573d8060008114611741576040519150601f19603f3d011682016040523d82523d6000602084013e611746565b606091505b50600081510361178b576040517f08c379a000000000000000000000000000000000000000000000000000000000815260040161178290612afa565b60405180910390fd5b805181602001fd5b63150b7a0260e01b7bffffffffffffffffffffffffffffffffffffffffffffffffffffffff1916817bffffffffffffffffffffffffffffffffffffffffffffffffffffffff1916149150506117e8565b600190505b949350505050565b6060600060016117ff8461193c565b01905060008167ffffffffffffffff81111561181e5761181d612158565b5b6040519080825280601f01601f1916602001820160405280156118505781602001600182028036833780820191505090505b509050600082602001820190505b6001156118b3578080600190039150507f3031323334353637383961626364656600000000000000000000000000000000600a86061a8153600a85816118a7576118a6612f0d565b5b0494506000850361185e575b819350505050919050565b6118c88383611a8f565b6118d56000848484611669565b611914576040517f08c379a000000000000000000000000000000000000000000000000000000000815260040161190b90612afa565b60405180910390fd5b505050565b6000808273ffffffffffffffffffffffffffffffffffffffff163b119050919050565b600080600090507a184f03e93ff9f4daa797ed6e38ed64bf6a1f010000000000000000831061199a577a184f03e93ff9f4daa797ed6e38ed64bf6a1f01000000000000000083816119905761198f612f0d565b5b0492506040810190505b6d04ee2d6d415b85acef810000000083106119d7576d04ee2d6d415b85acef810000000083816119cd576119cc612f0d565b5b0492506020810190505b662386f26fc100008310611a0657662386f26fc1000083816119fc576119fb612f0d565b5b0492506010810190505b6305f5e1008310611a2f576305f5e1008381611a2557611a24612f0d565b5b0492506008810190505b6127108310611a54576127108381611a4a57611a49612f0d565b5b0492506004810190505b60648310611a775760648381611a6d57611a6c612f0d565b5b0492506002810190505b600a8310611a86576001810190505b80915050919050565b600073ffffffffffffffffffffffffffffffffffffffff168273ffffffffffffffffffffffffffffffffffffffff1603611afe576040517f08c379a0000000000000000000000000000000000000000000000000000000008152600401611af590612f88565b60405180910390fd5b611b078161161c565b15611b47576040517f08c379a0000000000000000000000000000000000000000000000000000000008152600401611b3e90612ff4565b60405180910390fd5b611b5560008383600161165d565b611b5e8161161c565b15611b9e576040517f08c379a0000000000000000000000000000000000000000000000000000000008152600401611b9590612ff4565b60405180910390fd5b6001600360008473ffffffffffffffffffffffffffffffffffffffff1673ffffffffffffffffffffffffffffffffffffffff16815260200190815260200160002060008282540192505081905550816002600083815260200190815260200160002060006101000a81548173ffffffffffffffffffffffffffffffffffffffff021916908373ffffffffffffffffffffffffffffffffffffffff160217905550808273ffffffffffffffffffffffffffffffffffffffff16600073ffffffffffffffffffffffffffffffffffffffff167fddf252ad1be2c89b69c2b068fc378daa952ba7f163c4a11628f55a4df523b3ef60405160405180910390a4611ca8600083836001611663565b5050565b6000604051905090565b600080fd5b600080fd5b60007fffffffff0000000000000000000000000000000000000000000000000000000082169050919050565b611cf581611cc0565b8114611d0057600080fd5b50565b600081359050611d1281611cec565b92915050565b600060208284031215611d2e57611d2d611cb6565b5b6000611d3c84828501611d03565b91505092915050565b60008115159050919050565b611d5a81611d45565b82525050565b6000602082019050611d756000830184611d51565b92915050565b600081519050919050565b600082825260208201905092915050565b60005b83811015611db5578082015181840152602081019050611d9a565b60008484015250505050565b6000601f19601f8301169050919050565b6000611ddd82611d7b565b611de78185611d86565b9350611df7818560208601611d97565b611e0081611dc1565b840191505092915050565b60006020820190508181036000830152611e258184611dd2565b905092915050565b6000819050919050565b611e4081611e2d565b8114611e4b57600080fd5b50565b600081359050611e5d81611e37565b92915050565b600060208284031215611e7957611e78611cb6565b5b6000611e8784828501611e4e565b91505092915050565b600073ffffffffffffffffffffffffffffffffffffffff82169050919050565b6000611ebb82611e90565b9050919050565b611ecb81611eb0565b82525050565b6000602082019050611ee66000830184611ec2565b92915050565b611ef581611eb0565b8114611f0057600080fd5b50565b600081359050611f1281611eec565b92915050565b60008060408385031215611f2f57611f2e611cb6565b5b6000611f3d85828601611f03565b9250506020611f4e85828601611e4e565b9150509250929050565b600080600060608486031215611f7157611f70611cb6565b5b6000611f7f86828701611f03565b9350506020611f9086828701611f03565b9250506040611fa186828701611e4e565b9150509250925092565b600060208284031215611fc157611fc0611cb6565b5b6000611fcf84828501611f03565b91505092915050565b611fe181611e2d565b82525050565b6000602082019050611ffc6000830184611fd8565b92915050565b600081519050919050565b600082825260208201905092915050565b6000819050602082019050919050565b61203781611e2d565b82525050565b6000612049838361202e565b60208301905092915050565b6000602082019050919050565b600061206d82612002565b612077818561200d565b93506120828361201e565b8060005b838110156120b357815161209a888261203d565b97506120a583612055565b925050600181019050612086565b5085935050505092915050565b600060208201905081810360008301526120da8184612062565b905092915050565b6120eb81611d45565b81146120f657600080fd5b50565b600081359050612108816120e2565b92915050565b6000806040838503121561212557612124611cb6565b5b600061213385828601611f03565b9250506020612144858286016120f9565b9150509250929050565b600080fd5b600080fd5b7f4e487b7100000000000000000000000000000000000000000000000000000000600052604160045260246000fd5b61219082611dc1565b810181811067ffffffffffffffff821117156121af576121ae612158565b5b80604052505050565b60006121c2611cac565b90506121ce8282612187565b919050565b600067ffffffffffffffff8211156121ee576121ed612158565b5b6121f782611dc1565b9050602081019050919050565b82818337600083830152505050565b6000612226612221846121d3565b6121b8565b90508281526020810184848401111561224257612241612153565b5b61224d848285612204565b509392505050565b600082601f83011261226a5761226961214e565b5b813561227a848260208601612213565b91505092915050565b6000806000806080858703121561229d5761229c611cb6565b5b60006122ab87828801611f03565b94505060206122bc87828801611f03565b93505060406122cd87828801611e4e565b925050606085013567ffffffffffffffff8111156122ee576122ed611cbb565b5b6122fa87828801612255565b91505092959194509250565b600067ffffffffffffffff82111561232157612320612158565b5b61232a82611dc1565b9050602081019050919050565b600061234a61234584612306565b6121b8565b90508281526020810184848401111561236657612365612153565b5b612371848285612204565b509392505050565b600082601f83011261238e5761238d61214e565b5b813561239e848260208601612337565b91505092915050565b6000602082840312156123bd576123bc611cb6565b5b600082013567ffffffffffffffff8111156123db576123da611cbb565b5b6123e784828501612379565b91505092915050565b6000806040838503121561240757612406611cb6565b5b600061241585828601611f03565b925050602061242685828601611f03565b9150509250929050565b7f4e487b7100000000000000000000000000000000000000000000000000000000600052602260045260246000fd5b6000600282049050600182168061247757607f821691505b60208210810361248a57612489612430565b5b50919050565b7f4552433732313a20617070726f76616c20746f2063757272656e74206f776e6560008201527f7200000000000000000000000000000000000000000000000000000000000000602082015250565b60006124ec602183611d86565b91506124f782612490565b604082019050919050565b6000602082019050818103600083015261251b816124df565b9050919050565b7f4552433732313a20617070726f76652063616c6c6572206973206e6f7420746f60008201527f6b656e206f776e6572206f7220617070726f76656420666f7220616c6c000000602082015250565b600061257e603d83611d86565b915061258982612522565b604082019050919050565b600060208201905081810360008301526125ad81612571565b9050919050565b7f4552433732313a2063616c6c6572206973206e6f7420746f6b656e206f776e6560008201527f72206f7220617070726f76656400000000000000000000000000000000000000602082015250565b6000612610602d83611d86565b915061261b826125b4565b604082019050919050565b6000602082019050818103600083015261263f81612603565b9050919050565b7f4552433732313a20696e76616c696420746f6b656e2049440000000000000000600082015250565b600061267c601883611d86565b915061268782612646565b602082019050919050565b600060208201905081810360008301526126ab8161266f565b9050919050565b7f4552433732313a2061646472657373207a65726f206973206e6f74206120766160008201527f6c6964206f776e65720000000000000000000000000000000000000000000000602082015250565b600061270e602983611d86565b9150612719826126b2565b604082019050919050565b6000602082019050818103600083015261273d81612701565b9050919050565b60008151905061275381611eec565b92915050565b60006020828403121561276f5761276e611cb6565b5b600061277d84828501612744565b91505092915050565b7f4e487b7100000000000000000000000000000000000000000000000000000000600052601160045260246000fd5b60006127c082611e2d565b91507fffffffffffffffffffffffffffffffffffffffffffffffffffffffffffffffff82036127f2576127f1612786565b5b600182019050919050565b7f4e487b7100000000000000000000000000000000000000000000000000000000600052603260045260246000fd5b600081905092915050565b600061284282611d7b565b61284c818561282c565b935061285c818560208601611d97565b80840191505092915050565b60006128748285612837565b91506128808284612837565b91508190509392505050565b7f416c7265616479206d696e746564000000000000000000000000000000000000600082015250565b60006128c2600e83611d86565b91506128cd8261288c565b602082019050919050565b600060208201905081810360008301526128f1816128b5565b9050919050565b7f4552433732313a207472616e736665722066726f6d20696e636f72726563742060008201527f6f776e6572000000000000000000000000000000000000000000000000000000602082015250565b6000612954602583611d86565b915061295f826128f8565b604082019050919050565b6000602082019050818103600083015261298381612947565b9050919050565b7f4552433732313a207472616e7366657220746f20746865207a65726f2061646460008201527f7265737300000000000000000000000000000000000000000000000000000000602082015250565b60006129e6602483611d86565b91506129f18261298a565b604082019050919050565b60006020820190508181036000830152612a15816129d9565b9050919050565b7f4552433732313a20617070726f766520746f2063616c6c657200000000000000600082015250565b6000612a52601983611d86565b9150612a5d82612a1c565b602082019050919050565b60006020820190508181036000830152612a8181612a45565b9050919050565b7f4552433732313a207472616e7366657220746f206e6f6e20455243373231526560008201527f63656976657220696d706c656d656e7465720000000000000000000000000000602082015250565b6000612ae4603283611d86565b9150612aef82612a88565b604082019050919050565b60006020820190508181036000830152612b1381612ad7565b9050919050565b7f45524337323155524953746f726167653a2055524920736574206f66206e6f6e60008201527f6578697374656e7420746f6b656e000000000000000000000000000000000000602082015250565b6000612b76602e83611d86565b9150612b8182612b1a565b604082019050919050565b60006020820190508181036000830152612ba581612b69565b9050919050565b60008190508160005260206000209050919050565b60006020601f8301049050919050565b600082821b905092915050565b600060088302612c0e7fffffffffffffffffffffffffffffffffffffffffffffffffffffffffffffffff82612bd1565b612c188683612bd1565b95508019841693508086168417925050509392505050565b6000819050919050565b6000612c55612c50612c4b84611e2d565b612c30565b611e2d565b9050919050565b6000819050919050565b612c6f83612c3a565b612c83612c7b82612c5c565b848454612bde565b825550505050565b600090565b612c98612c8b565b612ca3818484612c66565b505050565b5b81811015612cc757612cbc600082612c90565b600181019050612ca9565b5050565b601f821115612d0c57612cdd81612bac565b612ce684612bc1565b81016020851015612cf5578190505b612d09612d0185612bc1565b830182612ca8565b50505b505050565b600082821c905092915050565b6000612d2f60001984600802612d11565b1980831691505092915050565b6000612d488383612d1e565b9150826002028217905092915050565b612d6182611d7b565b67ffffffffffffffff811115612d7a57612d79612158565b5b612d84825461245f565b612d8f828285612ccb565b600060209050601f831160018114612dc25760008415612db0578287015190505b612dba8582612d3c565b865550612e22565b601f198416612dd086612bac565b60005b82811015612df857848901518255600182019150602085019450602081019050612dd3565b86831015612e155784890151612e11601f891682612d1e565b8355505b6001600288020188555050505b505050505050565b600081519050919050565b600082825260208201905092915050565b6000612e5182612e2a565b612e5b8185612e35565b9350612e6b818560208601611d97565b612e7481611dc1565b840191505092915050565b6000608082019050612e946000830187611ec2565b612ea16020830186611ec2565b612eae6040830185611fd8565b8181036060830152612ec08184612e46565b905095945050505050565b600081519050612eda81611cec565b92915050565b600060208284031215612ef657612ef5611cb6565b5b6000612f0484828501612ecb565b91505092915050565b7f4e487b7100000000000000000000000000000000000000000000000000000000600052601260045260246000fd5b7f4552433732313a206d696e7420746f20746865207a65726f2061646472657373600082015250565b6000612f72602083611d86565b9150612f7d82612f3c565b602082019050919050565b60006020820190508181036000830152612fa181612f65565b9050919050565b7f4552433732313a20746f6b656e20616c7265616479206d696e74656400000000600082015250565b6000612fde601c83611d86565b9150612fe982612fa8565b602082019050919050565b6000602082019050818103600083015261300d81612fd1565b905091905056fea2646970667358221220e40407abb21f08ca3cc87a6f8049548c0b6916416e06197306ac1878e509361a64736f6c63430008140033",
  "linkReferences": {},
  "deployedLinkReferences": {}
}