{
  "_format": "hh-sol-artifact-1",
  "contractName": "MessageBoard",
  "sourceName": "contracts/MessageBoard.sol",
  "abi": [
    {
      "anonymous": false,
      "inputs": [
        {
          "indexed": true,
          "internalType": "address",
          "name": "sender",
          "type": "address"
        },
        {
          "indexed": false,
          "internalType": "string",
          "name": "content",
          "type": "string"
        },
        {
          "indexed": false,
          "internalType": "uint256",
          "name": "timestamp",
          "type": "uint256"
        }
      ],
      "name": "NewMessage",
      "type": "event"
    },
    {
      "inputs": [
        {
          "internalType": "uint256",
          "name": "index",
          "type": "uint256"
        }
      ],
      "name": "getMessage",
      "outputs": [
        {
          "internalType": "address",
          "name": "sender",
          "type": "address"
        },
        {
          "internalType": "string",
          "name": "content",
          "type": "string"
        },
        {
          "internalType": "uint256",
          "name": "timestamp",
          "type": "uint256"
        }
      ],
      "stateMutability": "view",
      "type": "function"
    },
    {
      "inputs": [],
      "name": "getMessageCount",
      "outputs": [
        {
          "internalType": "uint256",
          "name": "",
          "type": "uint256"
        }
      ],
      "stateMutability": "view",
      "type": "function"
    },
    {
      "inputs": [
        {
          "internalType": "address",
          "name": "user",
          "type": "address"
        },
        {
          "internalType": "uint256",
          "name": "index",
          "type": "uint256"
        }
      ],
      "name": "getUserMessage",
      "outputs": [
        {
          "internalType": "address",
          "name": "sender",
          "type": "address"
        },
        {
          "internalType": "string",
          "name": "content",
          "type": "string"
        },
        {
          "internalType": "uint256",
          "name": "timestamp",
          "type": "uint256"
        }
      ],
      "stateMutability": "view",
      "type": "function"
    },
    {
      "inputs": [
        {
          "internalType": "address",
          "name": "user",
          "type": "address"
        }
      ],
      "name": "getUserMessageCount",
      "outputs": [
        {
          "internalType": "uint256",
          "name": "",
          "type": "uint256"
        }
      ],
      "stateMutability": "view",
      "type": "function"
    },
    {
      "inputs": [
        {
          "internalType": "uint256",
          "name": "",
          "type": "uint256"
        }
      ],
      "name": "messages",
      "outputs": [
        {
          "internalType": "address",
          "name": "sender",
          "type": "address"
        },
        {
          "internalType": "string",
          "name": "content",
          "type": "string"
        },
        {
          "internalType": "uint256",
          "name": "timestamp",
          "type": "uint256"
        }
      ],
      "stateMutability": "view",
      "type": "function"
    },
    {
      "inputs": [
        {
          "internalType": "string",
          "name": "_content",
          "type": "string"
        }
      ],
      "name": "postMessage",
      "outputs": [],
      "stateMutability": "nonpayable",
      "type": "function"
    },
    {
      "inputs": [
        {
          "internalType": "address",
          "name": "",
          "type": "address"
        },
        {
          "internalType": "uint256",
          "name": "",
          "type": "uint256"
        }
      ],
      "name": "userMessages",
      "outputs": [
        {
          "internalType": "uint256",
          "name": "",
          "type": "uint256"
        }
      ],
      "stateMutability": "view",
      "type": "function"
    }
  ],
  "bytecode": "0x608060405234801561001057600080fd5b506111d2806100206000396000f3fe608060405234801561001057600080fd5b506004361061007d5760003560e01c80636630f88f1161005b5780636630f88f1461010257806386f79edb1461011e5780639428cda314610150578063fbd4f328146101805761007d565b80630d80fefd146100825780632b659bfb146100b457806331933916146100e4575b600080fd5b61009c6004803603810190610097919061093b565b6101b2565b6040516100ab93929190610a48565b60405180910390f35b6100ce60048036038101906100c99190610ab2565b610294565b6040516100db9190610adf565b60405180910390f35b6100ec6102e0565b6040516100f99190610adf565b60405180910390f35b61011c60048036038101906101179190610c2f565b6102ec565b005b6101386004803603810190610133919061093b565b61050b565b60405161014793929190610a48565b60405180910390f35b61016a60048036038101906101659190610c78565b610696565b6040516101779190610adf565b60405180910390f35b61019a60048036038101906101959190610c78565b6106c7565b6040516101a993929190610a48565b60405180910390f35b600081815481106101c257600080fd5b90600052602060002090600302016000915090508060000160009054906101000a900473ffffffffffffffffffffffffffffffffffffffff169080600101805461020b90610ce7565b80601f016020809104026020016040519081016040528092919081815260200182805461023790610ce7565b80156102845780601f1061025957610100808354040283529160200191610284565b820191906000526020600020905b81548152906001019060200180831161026757829003601f168201915b5050505050908060020154905083565b6000600160008373ffffffffffffffffffffffffffffffffffffffff1673ffffffffffffffffffffffffffffffffffffffff168152602001908152602001600020805490509050919050565b60008080549050905090565b6000815111610330576040517f08c379a000000000000000000000000000000000000000000000000000000000815260040161032790610d64565b60405180910390fd5b61011881511115610376576040517f08c379a000000000000000000000000000000000000000000000000000000000815260040161036d90610dd0565b60405180910390fd5b600060405180606001604052803373ffffffffffffffffffffffffffffffffffffffff168152602001838152602001428152509050600081908060018154018082558091505060019003906000526020600020906003020160009091909190915060008201518160000160006101000a81548173ffffffffffffffffffffffffffffffffffffffff021916908373ffffffffffffffffffffffffffffffffffffffff16021790555060208201518160010190816104339190610f9c565b50604082015181600201555050600160003373ffffffffffffffffffffffffffffffffffffffff1673ffffffffffffffffffffffffffffffffffffffff1681526020019081526020016000206001600080549050610491919061109d565b90806001815401808255809150506001900390600052602060002001600090919091909150553373ffffffffffffffffffffffffffffffffffffffff167f4bba44446aea2a9f27db36c95346239fd392bf3a497349684a3890d0d764077d83426040516104ff9291906110d1565b60405180910390a25050565b60006060600080805490508410610557576040517f08c379a000000000000000000000000000000000000000000000000000000000815260040161054e9061114d565b60405180910390fd5b600080858154811061056c5761056b61116d565b5b90600052602060002090600302016040518060600160405290816000820160009054906101000a900473ffffffffffffffffffffffffffffffffffffffff1673ffffffffffffffffffffffffffffffffffffffff1673ffffffffffffffffffffffffffffffffffffffff1681526020016001820180546105eb90610ce7565b80601f016020809104026020016040519081016040528092919081815260200182805461061790610ce7565b80156106645780601f1061063957610100808354040283529160200191610664565b820191906000526020600020905b81548152906001019060200180831161064757829003601f168201915b505050505081526020016002820154815250509050806000015181602001518260400151935093509350509193909250565b600160205281600052604060002081815481106106b257600080fd5b90600052602060002001600091509150505481565b600060606000600160008673ffffffffffffffffffffffffffffffffffffffff1673ffffffffffffffffffffffffffffffffffffffff168152602001908152602001600020805490508410610751576040517f08c379a00000000000000000000000000000000000000000000000000000000081526004016107489061114d565b60405180910390fd5b6000600160008773ffffffffffffffffffffffffffffffffffffffff1673ffffffffffffffffffffffffffffffffffffffff16815260200190815260200160002085815481106107a4576107a361116d565b5b9060005260206000200154905060008082815481106107c6576107c561116d565b5b90600052602060002090600302016040518060600160405290816000820160009054906101000a900473ffffffffffffffffffffffffffffffffffffffff1673ffffffffffffffffffffffffffffffffffffffff1673ffffffffffffffffffffffffffffffffffffffff16815260200160018201805461084590610ce7565b80601f016020809104026020016040519081016040528092919081815260200182805461087190610ce7565b80156108be5780601f10610893576101008083540402835291602001916108be565b820191906000526020600020905b8154815290600101906020018083116108a157829003601f168201915b50505050508152602001600282015481525050905080600001518160200151826040015194509450945050509250925092565b6000604051905090565b600080fd5b600080fd5b6000819050919050565b61091881610905565b811461092357600080fd5b50565b6000813590506109358161090f565b92915050565b600060208284031215610951576109506108fb565b5b600061095f84828501610926565b91505092915050565b600073ffffffffffffffffffffffffffffffffffffffff82169050919050565b600061099382610968565b9050919050565b6109a381610988565b82525050565b600081519050919050565b600082825260208201905092915050565b60005b838110156109e35780820151818401526020810190506109c8565b60008484015250505050565b6000601f19601f8301169050919050565b6000610a0b826109a9565b610a1581856109b4565b9350610a258185602086016109c5565b610a2e816109ef565b840191505092915050565b610a4281610905565b82525050565b6000606082019050610a5d600083018661099a565b8181036020830152610a6f8185610a00565b9050610a7e6040830184610a39565b949350505050565b610a8f81610988565b8114610a9a57600080fd5b50565b600081359050610aac81610a86565b92915050565b600060208284031215610ac857610ac76108fb565b5b6000610ad684828501610a9d565b91505092915050565b6000602082019050610af46000830184610a39565b92915050565b600080fd5b600080fd5b7f4e487b7100000000000000000000000000000000000000000000000000000000600052604160045260246000fd5b610b3c826109ef565b810181811067ffffffffffffffff82111715610b5b57610b5a610b04565b5b80604052505050565b6000610b6e6108f1565b9050610b7a8282610b33565b919050565b600067ffffffffffffffff821115610b9a57610b99610b04565b5b610ba3826109ef565b9050602081019050919050565b82818337600083830152505050565b6000610bd2610bcd84610b7f565b610b64565b905082815260208101848484011115610bee57610bed610aff565b5b610bf9848285610bb0565b509392505050565b600082601f830112610c1657610c15610afa565b5b8135610c26848260208601610bbf565b91505092915050565b600060208284031215610c4557610c446108fb565b5b600082013567ffffffffffffffff811115610c6357610c62610900565b5b610c6f84828501610c01565b91505092915050565b60008060408385031215610c8f57610c8e6108fb565b5b6000610c9d85828601610a9d565b9250506020610cae85828601610926565b9150509250929050565b7f4e487b7100000000000000000000000000000000000000000000000000000000600052602260045260246000fd5b60006002820490506001821680610cff57607f821691505b602082108103610d1257610d11610cb8565b5b50919050565b7f4d6573736167652063616e6e6f7420626520656d707479000000000000000000600082015250565b6000610d4e6017836109b4565b9150610d5982610d18565b602082019050919050565b60006020820190508181036000830152610d7d81610d41565b9050919050565b7f4d65737361676520746f6f206c6f6e6700000000000000000000000000000000600082015250565b6000610dba6010836109b4565b9150610dc582610d84565b602082019050919050565b60006020820190508181036000830152610de981610dad565b9050919050565b60008190508160005260206000209050919050565b60006020601f8301049050919050565b600082821b905092915050565b600060088302610e527fffffffffffffffffffffffffffffffffffffffffffffffffffffffffffffffff82610e15565b610e5c8683610e15565b95508019841693508086168417925050509392505050565b6000819050919050565b6000610e99610e94610e8f84610905565b610e74565b610905565b9050919050565b6000819050919050565b610eb383610e7e565b610ec7610ebf82610ea0565b848454610e22565b825550505050565b600090565b610edc610ecf565b610ee7818484610eaa565b505050565b5b81811015610f0b57610f00600082610ed4565b600181019050610eed565b5050565b601f821115610f5057610f2181610df0565b610f2a84610e05565b81016020851015610f39578190505b610f4d610f4585610e05565b830182610eec565b50505b505050565b600082821c905092915050565b6000610f7360001984600802610f55565b1980831691505092915050565b6000610f8c8383610f62565b9150826002028217905092915050565b610fa5826109a9565b67ffffffffffffffff811115610fbe57610fbd610b04565b5b610fc88254610ce7565b610fd3828285610f0f565b600060209050601f8311600181146110065760008415610ff4578287015190505b610ffe8582610f80565b865550611066565b601f19841661101486610df0565b60005b8281101561103c57848901518255600182019150602085019450602081019050611017565b868310156110595784890151611055601f891682610f62565b8355505b6001600288020188555050505b505050505050565b7f4e487b7100000000000000000000000000000000000000000000000000000000600052601160045260246000fd5b60006110a882610905565b91506110b383610905565b92508282039050818111156110cb576110ca61106e565b5b92915050565b600060408201905081810360008301526110eb8185610a00565b90506110fa6020830184610a39565b9392505050565b7f4d65737361676520646f6573206e6f7420657869737400000000000000000000600082015250565b60006111376016836109b4565b915061114282611101565b602082019050919050565b600060208201905081810360008301526111668161112a565b9050919050565b7f4e487b7100000000000000000000000000000000000000000000000000000000600052603260045260246000fdfea2646970667358221220f9cb40171088f653a243c92b1ed1aea36df4a98953af8f4cbe96948221e1355364736f6c63430008140033",
  "linkReferences": {},
  "deployedLinkReferences": {}
}